{
  "contractName": "AniMons",
  "abi": [
    {
      "inputs": [
        {
          "internalType": "string",
          "name": "_name",
          "type": "string"
        },
        {
          "internalType": "string",
          "name": "_symbol",
          "type": "string"
        }
      ],
      "stateMutability": "nonpayable",
      "type": "constructor"
    },
    {
      "anonymous": false,
      "inputs": [
        {
          "indexed": true,
          "internalType": "address",
          "name": "owner",
          "type": "address"
        },
        {
          "indexed": true,
          "internalType": "address",
          "name": "approved",
          "type": "address"
        },
        {
          "indexed": true,
          "internalType": "uint256",
          "name": "tokenId",
          "type": "uint256"
        }
      ],
      "name": "Approval",
      "type": "event"
    },
    {
      "anonymous": false,
      "inputs": [
        {
          "indexed": true,
          "internalType": "address",
          "name": "owner",
          "type": "address"
        },
        {
          "indexed": true,
          "internalType": "address",
          "name": "operator",
          "type": "address"
        },
        {
          "indexed": false,
          "internalType": "bool",
          "name": "approved",
          "type": "bool"
        }
      ],
      "name": "ApprovalForAll",
      "type": "event"
    },
    {
      "anonymous": false,
      "inputs": [
        {
          "indexed": true,
          "internalType": "address",
          "name": "owner",
          "type": "address"
        },
        {
          "indexed": false,
          "internalType": "uint256",
          "name": "id",
          "type": "uint256"
        },
        {
          "indexed": false,
          "internalType": "uint256",
          "name": "dna",
          "type": "uint256"
        }
      ],
      "name": "NewLip",
      "type": "event"
    },
    {
      "anonymous": false,
      "inputs": [
        {
          "indexed": true,
          "internalType": "address",
          "name": "previousOwner",
          "type": "address"
        },
        {
          "indexed": true,
          "internalType": "address",
          "name": "newOwner",
          "type": "address"
        }
      ],
      "name": "OwnershipTransferred",
      "type": "event"
    },
    {
      "anonymous": false,
      "inputs": [
        {
          "indexed": true,
          "internalType": "address",
          "name": "from",
          "type": "address"
        },
        {
          "indexed": true,
          "internalType": "address",
          "name": "to",
          "type": "address"
        },
        {
          "indexed": true,
          "internalType": "uint256",
          "name": "tokenId",
          "type": "uint256"
        }
      ],
      "name": "Transfer",
      "type": "event"
    },
    {
      "inputs": [
        {
          "internalType": "address",
          "name": "to",
          "type": "address"
        },
        {
          "internalType": "uint256",
          "name": "tokenId",
          "type": "uint256"
        }
      ],
      "name": "approve",
      "outputs": [],
      "stateMutability": "nonpayable",
      "type": "function"
    },
    {
      "inputs": [
        {
          "internalType": "address",
          "name": "owner",
          "type": "address"
        }
      ],
      "name": "balanceOf",
      "outputs": [
        {
          "internalType": "uint256",
          "name": "",
          "type": "uint256"
        }
      ],
      "stateMutability": "view",
      "type": "function"
    },
    {
      "inputs": [
        {
          "internalType": "uint256",
          "name": "tokenId",
          "type": "uint256"
        }
      ],
      "name": "getApproved",
      "outputs": [
        {
          "internalType": "address",
          "name": "",
          "type": "address"
        }
      ],
      "stateMutability": "view",
      "type": "function"
    },
    {
      "inputs": [
        {
          "internalType": "address",
          "name": "owner",
          "type": "address"
        },
        {
          "internalType": "address",
          "name": "operator",
          "type": "address"
        }
      ],
      "name": "isApprovedForAll",
      "outputs": [
        {
          "internalType": "bool",
          "name": "",
          "type": "bool"
        }
      ],
      "stateMutability": "view",
      "type": "function"
    },
    {
      "inputs": [
        {
          "internalType": "uint256",
          "name": "",
          "type": "uint256"
        }
      ],
      "name": "lips",
      "outputs": [
        {
          "internalType": "string",
          "name": "name",
          "type": "string"
        },
        {
          "internalType": "uint256",
          "name": "id",
          "type": "uint256"
        },
        {
          "internalType": "uint256",
          "name": "dna",
          "type": "uint256"
        },
        {
          "internalType": "uint256",
          "name": "level",
          "type": "uint256"
        },
        {
          "internalType": "uint8",
          "name": "rarity",
          "type": "uint8"
        },
        {
          "internalType": "string",
          "name": "sex",
          "type": "string"
        },
        {
          "internalType": "uint256",
          "name": "vida",
          "type": "uint256"
        },
        {
          "internalType": "uint256",
          "name": "habil",
          "type": "uint256"
        },
        {
          "internalType": "uint256",
          "name": "fuerza",
          "type": "uint256"
        },
        {
          "internalType": "uint256",
          "name": "defenza",
          "type": "uint256"
        },
        {
          "internalType": "uint256",
          "name": "poder",
          "type": "uint256"
        }
      ],
      "stateMutability": "view",
      "type": "function"
    },
    {
      "inputs": [],
      "name": "name",
      "outputs": [
        {
          "internalType": "string",
          "name": "",
          "type": "string"
        }
      ],
      "stateMutability": "view",
      "type": "function"
    },
    {
      "inputs": [],
      "name": "owner",
      "outputs": [
        {
          "internalType": "address",
          "name": "",
          "type": "address"
        }
      ],
      "stateMutability": "view",
      "type": "function"
    },
    {
      "inputs": [
        {
          "internalType": "uint256",
          "name": "tokenId",
          "type": "uint256"
        }
      ],
      "name": "ownerOf",
      "outputs": [
        {
          "internalType": "address",
          "name": "",
          "type": "address"
        }
      ],
      "stateMutability": "view",
      "type": "function"
    },
    {
      "inputs": [],
      "name": "renounceOwnership",
      "outputs": [],
      "stateMutability": "nonpayable",
      "type": "function"
    },
    {
      "inputs": [
        {
          "internalType": "address",
          "name": "from",
          "type": "address"
        },
        {
          "internalType": "address",
          "name": "to",
          "type": "address"
        },
        {
          "internalType": "uint256",
          "name": "tokenId",
          "type": "uint256"
        }
      ],
      "name": "safeTransferFrom",
      "outputs": [],
      "stateMutability": "nonpayable",
      "type": "function"
    },
    {
      "inputs": [
        {
          "internalType": "address",
          "name": "from",
          "type": "address"
        },
        {
          "internalType": "address",
          "name": "to",
          "type": "address"
        },
        {
          "internalType": "uint256",
          "name": "tokenId",
          "type": "uint256"
        },
        {
          "internalType": "bytes",
          "name": "_data",
          "type": "bytes"
        }
      ],
      "name": "safeTransferFrom",
      "outputs": [],
      "stateMutability": "nonpayable",
      "type": "function"
    },
    {
      "inputs": [
        {
          "internalType": "address",
          "name": "operator",
          "type": "address"
        },
        {
          "internalType": "bool",
          "name": "approved",
          "type": "bool"
        }
      ],
      "name": "setApprovalForAll",
      "outputs": [],
      "stateMutability": "nonpayable",
      "type": "function"
    },
    {
      "inputs": [
        {
          "internalType": "bytes4",
          "name": "interfaceId",
          "type": "bytes4"
        }
      ],
      "name": "supportsInterface",
      "outputs": [
        {
          "internalType": "bool",
          "name": "",
          "type": "bool"
        }
      ],
      "stateMutability": "view",
      "type": "function"
    },
    {
      "inputs": [],
      "name": "symbol",
      "outputs": [
        {
          "internalType": "string",
          "name": "",
          "type": "string"
        }
      ],
      "stateMutability": "view",
      "type": "function"
    },
    {
      "inputs": [
        {
          "internalType": "uint256",
          "name": "tokenId",
          "type": "uint256"
        }
      ],
      "name": "tokenURI",
      "outputs": [
        {
          "internalType": "string",
          "name": "",
          "type": "string"
        }
      ],
      "stateMutability": "view",
      "type": "function"
    },
    {
      "inputs": [
        {
          "internalType": "address",
          "name": "from",
          "type": "address"
        },
        {
          "internalType": "address",
          "name": "to",
          "type": "address"
        },
        {
          "internalType": "uint256",
          "name": "tokenId",
          "type": "uint256"
        }
      ],
      "name": "transferFrom",
      "outputs": [],
      "stateMutability": "nonpayable",
      "type": "function"
    },
    {
      "inputs": [
        {
          "internalType": "address",
          "name": "newOwner",
          "type": "address"
        }
      ],
      "name": "transferOwnership",
      "outputs": [],
      "stateMutability": "nonpayable",
      "type": "function"
    },
    {
      "inputs": [
        {
          "internalType": "uint256",
          "name": "_fee",
          "type": "uint256"
        }
      ],
      "name": "updateFee",
      "outputs": [],
      "stateMutability": "nonpayable",
      "type": "function"
    },
    {
      "inputs": [],
      "name": "withdraw",
      "outputs": [],
      "stateMutability": "payable",
      "type": "function"
    },
    {
      "inputs": [
        {
          "internalType": "string",
          "name": "_name",
          "type": "string"
        }
      ],
      "name": "createRandomLip",
      "outputs": [],
      "stateMutability": "payable",
      "type": "function"
    },
    {
      "inputs": [],
      "name": "getLips",
      "outputs": [
        {
          "components": [
            {
              "internalType": "string",
              "name": "name",
              "type": "string"
            },
            {
              "internalType": "uint256",
              "name": "id",
              "type": "uint256"
            },
            {
              "internalType": "uint256",
              "name": "dna",
              "type": "uint256"
            },
            {
              "internalType": "uint256",
              "name": "level",
              "type": "uint256"
            },
            {
              "internalType": "uint8",
              "name": "rarity",
              "type": "uint8"
            },
            {
              "internalType": "string",
              "name": "sex",
              "type": "string"
            },
            {
              "internalType": "uint256",
              "name": "vida",
              "type": "uint256"
            },
            {
              "internalType": "uint256",
              "name": "habil",
              "type": "uint256"
            },
            {
              "internalType": "uint256",
              "name": "fuerza",
              "type": "uint256"
            },
            {
              "internalType": "uint256",
              "name": "defenza",
              "type": "uint256"
            },
            {
              "internalType": "uint256",
              "name": "poder",
              "type": "uint256"
            }
          ],
          "internalType": "struct AniMons.Lip[]",
          "name": "",
          "type": "tuple[]"
        }
      ],
      "stateMutability": "view",
      "type": "function"
    },
    {
      "inputs": [],
      "name": "moneySmartContract",
      "outputs": [
        {
          "internalType": "uint256",
          "name": "",
          "type": "uint256"
        }
      ],
      "stateMutability": "view",
      "type": "function"
    },
    {
      "inputs": [],
      "name": "addressSmartContract",
      "outputs": [
        {
          "internalType": "address",
          "name": "",
          "type": "address"
        }
      ],
      "stateMutability": "view",
      "type": "function"
    },
    {
      "inputs": [
        {
          "internalType": "address",
          "name": "_owner",
          "type": "address"
        }
      ],
      "name": "getOwnerLips",
      "outputs": [
        {
          "components": [
            {
              "internalType": "string",
              "name": "name",
              "type": "string"
            },
            {
              "internalType": "uint256",
              "name": "id",
              "type": "uint256"
            },
            {
              "internalType": "uint256",
              "name": "dna",
              "type": "uint256"
            },
            {
              "internalType": "uint256",
              "name": "level",
              "type": "uint256"
            },
            {
              "internalType": "uint8",
              "name": "rarity",
              "type": "uint8"
            },
            {
              "internalType": "string",
              "name": "sex",
              "type": "string"
            },
            {
              "internalType": "uint256",
              "name": "vida",
              "type": "uint256"
            },
            {
              "internalType": "uint256",
              "name": "habil",
              "type": "uint256"
            },
            {
              "internalType": "uint256",
              "name": "fuerza",
              "type": "uint256"
            },
            {
              "internalType": "uint256",
              "name": "defenza",
              "type": "uint256"
            },
            {
              "internalType": "uint256",
              "name": "poder",
              "type": "uint256"
            }
          ],
          "internalType": "struct AniMons.Lip[]",
          "name": "",
          "type": "tuple[]"
        }
      ],
      "stateMutability": "view",
      "type": "function"
    },
    {
      "inputs": [
        {
          "internalType": "uint256",
          "name": "_lipId",
          "type": "uint256"
        }
      ],
      "name": "levelUp",
      "outputs": [],
      "stateMutability": "payable",
      "type": "function"
    },
    {
      "inputs": [
        {
          "internalType": "uint256",
          "name": "_lipId",
          "type": "uint256"
        }
      ],
      "name": "vidaUp",
      "outputs": [],
      "stateMutability": "payable",
      "type": "function"
    },
    {
      "inputs": [
        {
          "internalType": "uint256",
          "name": "_lipId",
          "type": "uint256"
        }
      ],
      "name": "habilUp",
      "outputs": [],
      "stateMutability": "payable",
      "type": "function"
    },
    {
      "inputs": [
        {
          "internalType": "uint256",
          "name": "_lipId",
          "type": "uint256"
        }
      ],
      "name": "fuerzaUp",
      "outputs": [],
      "stateMutability": "payable",
      "type": "function"
    },
    {
      "inputs": [
        {
          "internalType": "uint256",
          "name": "_lipId",
          "type": "uint256"
        }
      ],
      "name": "defenzaUp",
      "outputs": [],
      "stateMutability": "payable",
      "type": "function"
    },
    {
      "inputs": [
        {
          "internalType": "uint256",
          "name": "_lipId",
          "type": "uint256"
        }
      ],
      "name": "poderUp",
      "outputs": [],
      "stateMutability": "payable",
      "type": "function"
    }
  ],
  "bytecode": "0x608060405266038d7ea4c680006008553480156200001c57600080fd5b5060405162002e4938038062002e498339810160408190526200003f9162000242565b81518290829062000058906000906020850190620000e9565b5080516200006e906001906020840190620000e9565b5050506200008b620000856200009360201b60201c565b62000097565b5050620002fc565b3390565b600680546001600160a01b038381166001600160a01b0319831681179093556040519116919082907f8be0079c531659141344cd1fd0a4f28419497f9722a3daafe3b4186f6b6457e090600090a35050565b828054620000f790620002a9565b90600052602060002090601f0160209004810192826200011b576000855562000166565b82601f106200013657805160ff191683800117855562000166565b8280016001018555821562000166579182015b828111156200016657825182559160200191906001019062000149565b506200017492915062000178565b5090565b5b8082111562000174576000815560010162000179565b600082601f830112620001a0578081fd5b81516001600160401b0380821115620001bd57620001bd620002e6565b604051601f8301601f19908116603f01168101908282118183101715620001e857620001e8620002e6565b8160405283815260209250868385880101111562000204578485fd5b8491505b8382101562000227578582018301518183018401529082019062000208565b838211156200023857848385830101525b9695505050505050565b6000806040838503121562000255578182fd5b82516001600160401b03808211156200026c578384fd5b6200027a868387016200018f565b9350602085015191508082111562000290578283fd5b506200029f858286016200018f565b9150509250929050565b600281046001821680620002be57607f821691505b60208210811415620002e057634e487b7160e01b600052602260045260246000fd5b50919050565b634e487b7160e01b600052604160045260246000fd5b612b3d806200030c6000396000f3fe6080604052600436106101cd5760003560e01c8063715018a6116100f7578063a22cb46511610095578063c87b56dd11610064578063c87b56dd146104c2578063dd7c1757146104e2578063e985e9c5146104f5578063f2fde38b14610515576101cd565b8063a22cb4651461045a578063a8f4bfe81461047a578063b88d4fde1461048d578063c2f5168a146104ad576101cd565b80638da5cb5b116100d15780638da5cb5b146103fb5780639012c4a81461041057806395d89b411461043057806399470ee614610445576101cd565b8063715018a6146103a457806383b5daf7146103b95780638c0b9c54146103db576101cd565b8063304b1e2e1161016f5780635f3a26e41161013e5780635f3a26e4146103315780636352211e14610344578063698d640c1461036457806370a0823114610377576101cd565b8063304b1e2e146102bf5780633ccfd60b146102d257806342842e0e146102da5780635ec163db146102fa576101cd565b8063095ea7b3116101ab578063095ea7b3146102575780630ce90ec2146102795780630d5d53ba1461028c57806323b872dd1461029f576101cd565b806301ffc9a7146101d257806306fdde0314610208578063081812fc1461022a575b600080fd5b3480156101de57600080fd5b506101f26101ed36600461224d565b610535565b6040516101ff91906124a4565b60405180910390f35b34801561021457600080fd5b5061021d61057d565b6040516101ff91906124af565b34801561023657600080fd5b5061024a6102453660046122cb565b61060f565b6040516101ff9190612365565b34801561026357600080fd5b50610277610272366004612224565b61065b565b005b6102776102873660046122cb565b6106f3565b61027761029a3660046122cb565b610770565b3480156102ab57600080fd5b506102776102ba366004612136565b6107f2565b6102776102cd3660046122cb565b61082a565b6102776108ac565b3480156102e657600080fd5b506102776102f5366004612136565b610931565b34801561030657600080fd5b5061031a6103153660046122cb565b61094c565b6040516101ff9b9a999897969594939291906124c2565b61027761033f3660046122cb565b610ace565b34801561035057600080fd5b5061024a61035f3660046122cb565b610b50565b610277610372366004612285565b610b85565b34801561038357600080fd5b506103976103923660046120ea565b610ba0565b6040516101ff919061299d565b3480156103b057600080fd5b50610277610be4565b3480156103c557600080fd5b506103ce610c2f565b6040516101ff91906123b6565b3480156103e757600080fd5b506103ce6103f63660046120ea565b610e14565b34801561040757600080fd5b5061024a6110c8565b34801561041c57600080fd5b5061027761042b3660046122cb565b6110d7565b34801561043c57600080fd5b5061021d61111b565b34801561045157600080fd5b5061039761112a565b34801561046657600080fd5b506102776104753660046121ea565b61112e565b6102776104883660046122cb565b611140565b34801561049957600080fd5b506102776104a8366004612171565b6111c2565b3480156104b957600080fd5b5061024a611201565b3480156104ce57600080fd5b5061021d6104dd3660046122cb565b611205565b6102776104f03660046122cb565b611288565b34801561050157600080fd5b506101f2610510366004612104565b61130a565b34801561052157600080fd5b506102776105303660046120ea565b611338565b60006001600160e01b031982166380ac58cd60e01b148061056657506001600160e01b03198216635b5e139f60e01b145b806105755750610575826113a6565b90505b919050565b60606000805461058c90612a45565b80601f01602080910402602001604051908101604052809291908181526020018280546105b890612a45565b80156106055780601f106105da57610100808354040283529160200191610605565b820191906000526020600020905b8154815290600101906020018083116105e857829003601f168201915b5050505050905090565b600061061a826113bf565b61063f5760405162461bcd60e51b8152600401610636906127f2565b60405180910390fd5b506000908152600460205260409020546001600160a01b031690565b600061066682610b50565b9050806001600160a01b0316836001600160a01b0316141561069a5760405162461bcd60e51b81526004016106369061290b565b806001600160a01b03166106ac6113dc565b6001600160a01b031614806106c857506106c8816105106113dc565b6106e45760405162461bcd60e51b8152600401610636906126cd565b6106ee83836113e0565b505050565b336106fd82610b50565b6001600160a01b03161461071057600080fd5b60085434101561071f57600080fd5b6000600b828154811061074257634e487b7160e01b600052603260045260246000fd5b90600052602060002090600b0201905080600301600081548092919061076790612a80565b91905055505050565b3361077a82610b50565b6001600160a01b03161461078d57600080fd5b60085434101561079c57600080fd5b6000600b82815481106107bf57634e487b7160e01b600052603260045260246000fd5b90600052602060002090600b020190506000600590508082600801546107e591906129b4565b8260080181905550505050565b6108036107fd6113dc565b8261144e565b61081f5760405162461bcd60e51b81526004016106369061294c565b6106ee8383836114d3565b3361083482610b50565b6001600160a01b03161461084757600080fd5b60085434101561085657600080fd5b6000600b828154811061087957634e487b7160e01b600052603260045260246000fd5b90600052602060002090600b0201905060006003905080826009015461089f91906129b4565b8260090181905550505050565b6108b46113dc565b6001600160a01b03166108c56110c8565b6001600160a01b0316146108eb5760405162461bcd60e51b81526004016106369061283e565b60006108f56110c8565b6040519091506001600160a01b038216904780156108fc02916000818181858888f1935050505015801561092d573d6000803e3d6000fd5b5050565b6106ee838383604051806020016040528060008152506111c2565b600b818154811061095c57600080fd5b90600052602060002090600b020160009150905080600001805461097f90612a45565b80601f01602080910402602001604051908101604052809291908181526020018280546109ab90612a45565b80156109f85780601f106109cd576101008083540402835291602001916109f8565b820191906000526020600020905b8154815290600101906020018083116109db57829003601f168201915b50505060018401546002850154600386015460048701546005880180549798949793965091945060ff169291610a2d90612a45565b80601f0160208091040260200160405190810160405280929190818152602001828054610a5990612a45565b8015610aa65780601f10610a7b57610100808354040283529160200191610aa6565b820191906000526020600020905b815481529060010190602001808311610a8957829003601f168201915b50505050509080600601549080600701549080600801549080600901549080600a015490508b565b33610ad882610b50565b6001600160a01b031614610aeb57600080fd5b600854341015610afa57600080fd5b6000600b8281548110610b1d57634e487b7160e01b600052603260045260246000fd5b90600052602060002090600b02019050600060039050808260070154610b4391906129b4565b8260070181905550505050565b6000818152600260205260408120546001600160a01b0316806105755760405162461bcd60e51b815260040161063690612774565b600854341015610b9457600080fd5b610b9d81611600565b50565b60006001600160a01b038216610bc85760405162461bcd60e51b81526004016106369061272a565b506001600160a01b031660009081526003602052604090205490565b610bec6113dc565b6001600160a01b0316610bfd6110c8565b6001600160a01b031614610c235760405162461bcd60e51b81526004016106369061283e565b610c2d6000611a8b565b565b6060600b805480602002602001604051908101604052809291908181526020016000905b82821015610e0b57838290600052602060002090600b020160405180610160016040529081600082018054610c8790612a45565b80601f0160208091040260200160405190810160405280929190818152602001828054610cb390612a45565b8015610d005780601f10610cd557610100808354040283529160200191610d00565b820191906000526020600020905b815481529060010190602001808311610ce357829003601f168201915b5050509183525050600182015460208201526002820154604082015260038201546060820152600482015460ff16608082015260058201805460a090920191610d4890612a45565b80601f0160208091040260200160405190810160405280929190818152602001828054610d7490612a45565b8015610dc15780601f10610d9657610100808354040283529160200191610dc1565b820191906000526020600020905b815481529060010190602001808311610da457829003601f168201915b5050505050815260200160068201548152602001600782015481526020016008820154815260200160098201548152602001600a8201548152505081526020019060010190610c53565b50505050905090565b60606000610e2183610ba0565b67ffffffffffffffff811115610e4757634e487b7160e01b600052604160045260246000fd5b604051908082528060200260200182016040528015610e8057816020015b610e6d611f67565b815260200190600190039081610e655790505b5090506000805b600b548110156110bf57846001600160a01b0316610ea482610b50565b6001600160a01b031614156110ad57600b8181548110610ed457634e487b7160e01b600052603260045260246000fd5b90600052602060002090600b020160405180610160016040529081600082018054610efe90612a45565b80601f0160208091040260200160405190810160405280929190818152602001828054610f2a90612a45565b8015610f775780601f10610f4c57610100808354040283529160200191610f77565b820191906000526020600020905b815481529060010190602001808311610f5a57829003601f168201915b5050509183525050600182015460208201526002820154604082015260038201546060820152600482015460ff16608082015260058201805460a090920191610fbf90612a45565b80601f0160208091040260200160405190810160405280929190818152602001828054610feb90612a45565b80156110385780601f1061100d57610100808354040283529160200191611038565b820191906000526020600020905b81548152906001019060200180831161101b57829003601f168201915b5050505050815260200160068201548152602001600782015481526020016008820154815260200160098201548152602001600a8201548152505083838151811061109357634e487b7160e01b600052603260045260246000fd5b602002602001018190525081806110a990612a80565b9250505b806110b781612a80565b915050610e87565b50909392505050565b6006546001600160a01b031690565b6110df6113dc565b6001600160a01b03166110f06110c8565b6001600160a01b0316146111165760405162461bcd60e51b81526004016106369061283e565b600855565b60606001805461058c90612a45565b4790565b61092d6111396113dc565b8383611add565b3361114a82610b50565b6001600160a01b03161461115d57600080fd5b60085434101561116c57600080fd5b6000600b828154811061118f57634e487b7160e01b600052603260045260246000fd5b90600052602060002090600b020190506000600a90508082600a01546111b591906129b4565b82600a0181905550505050565b6111d36111cd6113dc565b8361144e565b6111ef5760405162461bcd60e51b81526004016106369061294c565b6111fb84848484611b80565b50505050565b3090565b6060611210826113bf565b61122c5760405162461bcd60e51b8152600401610636906128bc565b6000611236611bb3565b905060008151116112565760405180602001604052806000815250611281565b8061126084611bc5565b604051602001611271929190612316565b6040516020818303038152906040525b9392505050565b3361129282610b50565b6001600160a01b0316146112a557600080fd5b6008543410156112b457600080fd5b6000600b82815481106112d757634e487b7160e01b600052603260045260246000fd5b90600052602060002090600b020190506000600f90508082600601546112fd91906129b4565b8260060181905550505050565b6001600160a01b03918216600090815260056020908152604080832093909416825291909152205460ff1690565b6113406113dc565b6001600160a01b03166113516110c8565b6001600160a01b0316146113775760405162461bcd60e51b81526004016106369061283e565b6001600160a01b03811661139d5760405162461bcd60e51b815260040161063690612589565b610b9d81611a8b565b6001600160e01b031981166301ffc9a760e01b14919050565b6000908152600260205260409020546001600160a01b0316151590565b3390565b600081815260046020526040902080546001600160a01b0319166001600160a01b038416908117909155819061141582610b50565b6001600160a01b03167f8c5be1e5ebec7d5bd14f71427d1e84f3dd0314c0f7b2291e5b200ac8c7c3b92560405160405180910390a45050565b6000611459826113bf565b6114755760405162461bcd60e51b815260040161063690612681565b600061148083610b50565b9050806001600160a01b0316846001600160a01b031614806114bb5750836001600160a01b03166114b08461060f565b6001600160a01b0316145b806114cb57506114cb818561130a565b949350505050565b826001600160a01b03166114e682610b50565b6001600160a01b03161461150c5760405162461bcd60e51b815260040161063690612873565b6001600160a01b0382166115325760405162461bcd60e51b815260040161063690612606565b61153d8383836106ee565b6115486000826113e0565b6001600160a01b0383166000908152600360205260408120805460019290611571908490612a02565b90915550506001600160a01b038216600090815260036020526040812080546001929061159f9084906129b4565b909155505060008181526002602052604080822080546001600160a01b0319166001600160a01b0386811691821790925591518493918716917fddf252ad1be2c89b69c2b068fc378daa952ba7f163c4a11628f55a4df523b3ef91a4505050565b600061160c6064611ce0565b90506000611620662386f26fc10000611ce0565b9050600061162f610441611ce0565b905060ff8316808080806116436004611ce0565b600a819055611652576001600a555b61165d600287612a9b565b61168f57604080518082019091526001808252602360f91b602090920191825261168991600991611fc4565b506116b9565b604080518082019091526001808252604d60f81b60209092019182526116b791600991611fc4565b505b60468860ff16116116d5576116cf600f896129e0565b60ff1694505b60468860ff16106116f1576116eb600a896129e0565b60ff1694505b605a8860ff161061170d576117076005896129e0565b60ff1694505b60468860ff1611611729576117236019896129e0565b60ff1693505b60468860ff16106117455761173f600f896129e0565b60ff1693505b605a8860ff16106117615761175b600a896129e0565b60ff1693505b60468860ff161161177d57611777601e896129e0565b60ff1692505b60468860ff1610611799576117936014896129e0565b60ff1692505b605a8860ff16106117b5576117af600a896129e0565b60ff1692505b60468860ff16116117d1576117cb6032896129e0565b60ff1691505b60468860ff16106117ed576117e7601e896129e0565b60ff1691505b605a8860ff161061180957611803600f896129e0565b60ff1691505b60468860ff16116118255761181f601e896129e0565b60ff1690505b60468860ff16106118415761183b6014896129e0565b60ff1690505b605a8860ff161061185d57611857600a896129e0565b60ff1690505b60006040518061016001604052808b81526020016007548152602001898152602001600a5481526020018a60ff1681526020016009805461189d90612a45565b80601f01602080910402602001604051908101604052809291908181526020018280546118c990612a45565b80156119165780601f106118eb57610100808354040283529160200191611916565b820191906000526020600020905b8154815290600101906020018083116118f957829003601f168201915b5050509183525050602080820189905260408201889052606082018790526080820186905260a0909101849052600b80546001810182556000829052835180519495508594919092027f0175b7a638427703f0dbe7bb9bbf987a2551717b34e79f33b5b1008d1fa01db90192611990928492910190611fc4565b5060208281015160018301556040830151600283015560608301516003830155608083015160048301805460ff191660ff90921691909117905560a083015180516119e19260058501920190611fc4565b5060c0820151816006015560e082015181600701556101008201518160080155610120820151816009015561014082015181600a01555050611a2533600754611d1a565b336001600160a01b03167f24d2d558f98bdd9d21339e119fc0b03e213c7d05affd838ac2ee136d90e3bbeb6007548a604051611a629291906129a6565b60405180910390a260078054906000611a7a83612a80565b919050555050505050505050505050565b600680546001600160a01b038381166001600160a01b0319831681179093556040519116919082907f8be0079c531659141344cd1fd0a4f28419497f9722a3daafe3b4186f6b6457e090600090a35050565b816001600160a01b0316836001600160a01b03161415611b0f5760405162461bcd60e51b81526004016106369061264a565b6001600160a01b0383811660008181526005602090815260408083209487168084529490915290819020805460ff1916851515179055517f17307eab39ab6107e8899845ad3d59bd9653f200f220920489ca2b5937696c3190611b739085906124a4565b60405180910390a3505050565b611b8b8484846114d3565b611b9784848484611d34565b6111fb5760405162461bcd60e51b815260040161063690612537565b60408051602081019091526000815290565b606081611bea57506040805180820190915260018152600360fc1b6020820152610578565b8160005b8115611c145780611bfe81612a80565b9150611c0d9050600a836129cc565b9150611bee565b60008167ffffffffffffffff811115611c3d57634e487b7160e01b600052604160045260246000fd5b6040519080825280601f01601f191660200182016040528015611c67576020820181803683370190505b5090505b84156114cb57611c7c600183612a02565b9150611c89600a86612a9b565b611c949060306129b4565b60f81b818381518110611cb757634e487b7160e01b600052603260045260246000fd5b60200101906001600160f81b031916908160001a905350611cd9600a866129cc565b9450611c6b565b6000804233604051602001611cf6929190612345565b60408051601f19818403018152919052805160209091012090506112818382612a9b565b61092d828260405180602001604052806000815250611e4f565b6000611d48846001600160a01b0316611e82565b15611e4457836001600160a01b031663150b7a02611d646113dc565b8786866040518563ffffffff1660e01b8152600401611d869493929190612379565b602060405180830381600087803b158015611da057600080fd5b505af1925050508015611dd0575060408051601f3d908101601f19168201909252611dcd91810190612269565b60015b611e2a573d808015611dfe576040519150601f19603f3d011682016040523d82523d6000602084013e611e03565b606091505b508051611e225760405162461bcd60e51b815260040161063690612537565b805181602001fd5b6001600160e01b031916630a85bd0160e11b1490506114cb565b506001949350505050565b611e598383611e88565b611e666000848484611d34565b6106ee5760405162461bcd60e51b815260040161063690612537565b3b151590565b6001600160a01b038216611eae5760405162461bcd60e51b8152600401610636906127bd565b611eb7816113bf565b15611ed45760405162461bcd60e51b8152600401610636906125cf565b611ee0600083836106ee565b6001600160a01b0382166000908152600360205260408120805460019290611f099084906129b4565b909155505060008181526002602052604080822080546001600160a01b0319166001600160a01b03861690811790915590518392907fddf252ad1be2c89b69c2b068fc378daa952ba7f163c4a11628f55a4df523b3ef908290a45050565b60405180610160016040528060608152602001600081526020016000815260200160008152602001600060ff1681526020016060815260200160008152602001600081526020016000815260200160008152602001600081525090565b828054611fd090612a45565b90600052602060002090601f016020900481019282611ff25760008555612038565b82601f1061200b57805160ff1916838001178555612038565b82800160010185558215612038579182015b8281111561203857825182559160200191906001019061201d565b50612044929150612048565b5090565b5b808211156120445760008155600101612049565b600067ffffffffffffffff8084111561207857612078612adb565b604051601f8501601f19908116603f011681019082821181831017156120a0576120a0612adb565b816040528093508581528686860111156120b957600080fd5b858560208301376000602087830101525050509392505050565b80356001600160a01b038116811461057857600080fd5b6000602082840312156120fb578081fd5b611281826120d3565b60008060408385031215612116578081fd5b61211f836120d3565b915061212d602084016120d3565b90509250929050565b60008060006060848603121561214a578081fd5b612153846120d3565b9250612161602085016120d3565b9150604084013590509250925092565b60008060008060808587031215612186578081fd5b61218f856120d3565b935061219d602086016120d3565b925060408501359150606085013567ffffffffffffffff8111156121bf578182fd5b8501601f810187136121cf578182fd5b6121de8782356020840161205d565b91505092959194509250565b600080604083850312156121fc578182fd5b612205836120d3565b915060208301358015158114612219578182fd5b809150509250929050565b60008060408385031215612236578182fd5b61223f836120d3565b946020939093013593505050565b60006020828403121561225e578081fd5b813561128181612af1565b60006020828403121561227a578081fd5b815161128181612af1565b600060208284031215612296578081fd5b813567ffffffffffffffff8111156122ac578182fd5b8201601f810184136122bc578182fd5b6114cb8482356020840161205d565b6000602082840312156122dc578081fd5b5035919050565b600081518084526122fb816020860160208601612a19565b601f01601f19169290920160200192915050565b60ff169052565b60008351612328818460208801612a19565b83519083019061233c818360208801612a19565b01949350505050565b91825260601b6bffffffffffffffffffffffff1916602082015260340190565b6001600160a01b0391909116815260200190565b6001600160a01b03858116825284166020820152604081018390526080606082018190526000906123ac908301846122e3565b9695505050505050565b60208082528251828201819052600091906040908185019080840286018301878501865b8381101561249657603f1989840301855281516101608151818652612401828701826122e3565b9150508882015189860152878201518886015260608083015181870152506080808301516124318288018261230f565b505060a0808301518683038288015261244a83826122e3565b60c0858101519089015260e080860151908901526101008086015190890152610120808601519089015261014094850151949097019390935250505093860193908601906001016123da565b509098975050505050505050565b901515815260200190565b60006020825261128160208301846122e3565b60006101608083526124d68184018f6122e3565b90508c60208401528b60408401528a606084015260ff8a16608084015282810360a0840152612505818a6122e3565b60c0840198909852505060e0810194909452610100840192909252610120830152610140909101529695505050505050565b60208082526032908201527f4552433732313a207472616e7366657220746f206e6f6e20455243373231526560408201527131b2b4bb32b91034b6b83632b6b2b73a32b960711b606082015260800190565b60208082526026908201527f4f776e61626c653a206e6577206f776e657220697320746865207a65726f206160408201526564647265737360d01b606082015260800190565b6020808252601c908201527f4552433732313a20746f6b656e20616c7265616479206d696e74656400000000604082015260600190565b60208082526024908201527f4552433732313a207472616e7366657220746f20746865207a65726f206164646040820152637265737360e01b606082015260800190565b60208082526019908201527f4552433732313a20617070726f766520746f2063616c6c657200000000000000604082015260600190565b6020808252602c908201527f4552433732313a206f70657261746f7220717565727920666f72206e6f6e657860408201526b34b9ba32b73a103a37b5b2b760a11b606082015260800190565b60208082526038908201527f4552433732313a20617070726f76652063616c6c6572206973206e6f74206f7760408201527f6e6572206e6f7220617070726f76656420666f7220616c6c0000000000000000606082015260800190565b6020808252602a908201527f4552433732313a2062616c616e636520717565727920666f7220746865207a65604082015269726f206164647265737360b01b606082015260800190565b60208082526029908201527f4552433732313a206f776e657220717565727920666f72206e6f6e657869737460408201526832b73a103a37b5b2b760b91b606082015260800190565b6020808252818101527f4552433732313a206d696e7420746f20746865207a65726f2061646472657373604082015260600190565b6020808252602c908201527f4552433732313a20617070726f76656420717565727920666f72206e6f6e657860408201526b34b9ba32b73a103a37b5b2b760a11b606082015260800190565b6020808252818101527f4f776e61626c653a2063616c6c6572206973206e6f7420746865206f776e6572604082015260600190565b60208082526029908201527f4552433732313a207472616e73666572206f6620746f6b656e2074686174206960408201526839903737ba1037bbb760b91b606082015260800190565b6020808252602f908201527f4552433732314d657461646174613a2055524920717565727920666f72206e6f60408201526e3732bc34b9ba32b73a103a37b5b2b760891b606082015260800190565b60208082526021908201527f4552433732313a20617070726f76616c20746f2063757272656e74206f776e656040820152603960f91b606082015260800190565b60208082526031908201527f4552433732313a207472616e736665722063616c6c6572206973206e6f74206f6040820152701ddb995c881b9bdc88185c1c1c9bdd9959607a1b606082015260800190565b90815260200190565b918252602082015260400190565b600082198211156129c7576129c7612aaf565b500190565b6000826129db576129db612ac5565b500490565b600060ff8316806129f3576129f3612ac5565b8060ff84160491505092915050565b600082821015612a1457612a14612aaf565b500390565b60005b83811015612a34578181015183820152602001612a1c565b838111156111fb5750506000910152565b600281046001821680612a5957607f821691505b60208210811415612a7a57634e487b7160e01b600052602260045260246000fd5b50919050565b6000600019821415612a9457612a94612aaf565b5060010190565b600082612aaa57612aaa612ac5565b500690565b634e487b7160e01b600052601160045260246000fd5b634e487b7160e01b600052601260045260246000fd5b634e487b7160e01b600052604160045260246000fd5b6001600160e01b031981168114610b9d57600080fdfea26469706673582212205a9e46f95207f344461cac6d4f339f305bf0872025eb59bbb9813a48c4225dd564736f6c63430008010033",
  "immutableReferences": {},
  "source": "// SPDX-License-Identifier: MIT\npragma solidity ^0.8.0;\n\n// Importacin de los Smart Contract: ERC721.sol y Ownable.sol\nimport \"@openzeppelin/contracts/token/ERC721/ERC721.sol\";\nimport \"@openzeppelin/contracts/access/Ownable.sol\";\n\n// Creacin del Smart Contract para el Videojuego NFT\ncontract AniMons is ERC721, Ownable {\n\n    // Constructor de mi Smart Contract\n    constructor (string memory _name, string memory _symbol)\n    ERC721(_name, _symbol) {}\n\n    // ============================================\n    // Declaraciones iniciales\n\n    // Contador de tokens NFT\n    uint256 COUNTER;\n    // Fijacin en el precio de los Tokens NFT\n    uint256 fee = 0.001 ether;\n    string sex;\n    uint level;\n    // Estructura de datos con las propiedades del lip (labio)\n    struct Lip {\n        string name;\n        uint256 id;\n        uint256 dna;\n        uint level;\n        uint8 rarity;\n        string sex;\n        uint vida;\n        uint habil;\n        uint fuerza;\n        uint defenza;\n        uint poder;\n    }\n    // Estructura de almacenamiento\n    Lip [] public lips;\n    // Declaracin de un evento \n    event NewLip(address indexed owner, uint256 id, uint256 dna);\n\n    // ============================================\n    // Funciones de ayuda \n\n    // Asignacin de un nmero aleatorio\n    function _createRandomNum(uint256 _mod) internal view returns (uint256) {\n        uint256 randomNum = uint256(keccak256(abi.encodePacked(block.timestamp, msg.sender)));\n        return randomNum % _mod; \n    }\n\n    // Actualizacin del precio del Token NFT\n    function updateFee(uint256 _fee) external onlyOwner {\n        fee = _fee;\n    }\n\n    // Extraccin de los ethers del Smart Contract hacia el Owner \n    function withdraw() external payable onlyOwner {\n        address payable _owner = payable(owner());\n        _owner.transfer(address(this).balance);\n    }\n\n    // Creacin del Token NFT (lip/labio)\n    function _createLip(string memory _name) internal {\n        uint8 randRarity = uint8(_createRandomNum(100));\n        uint randDna = _createRandomNum(10**16);\n        uint sexo = _createRandomNum(33*33);\n        uint vida = randRarity; \n        uint habil = randRarity; \n        uint fuerza = randRarity; \n        uint defenza = randRarity;\n        uint poder = randRarity; \n        level = _createRandomNum(1*4);\n        if(level == 0){level=1;}\n        if (sexo % 2 == 0) {sex=\"F\";} else {sex=\"M\";}\n\n         if(randRarity <= 70){ vida = randRarity / 15; }\n         if(randRarity >= 70){ vida = randRarity / 10; }\n         if(randRarity >= 90) { vida = randRarity / 5; }\n\n         if(randRarity <= 70){ habil = randRarity / 25; }\n         if(randRarity >= 70){ habil = randRarity / 15; }\n         if(randRarity >= 90) { habil = randRarity / 10; } \n\n         if(randRarity <= 70){ fuerza = randRarity / 30; }\n         if(randRarity >= 70){ fuerza = randRarity / 20; }\n         if(randRarity >= 90) { fuerza = randRarity / 10; } \n\n          if(randRarity <= 70){ defenza = randRarity / 50; }\n         if(randRarity >= 70){ defenza = randRarity / 30; }\n         if(randRarity >= 90) { defenza = randRarity / 15; } \n\n          if(randRarity <= 70){ poder = randRarity / 30; }\n         if(randRarity >= 70){ poder = randRarity / 20; }\n         if(randRarity >= 90) { poder = randRarity / 10; } \n\n       // uint sex = _createRandomNum(10);\n        Lip memory newLip = Lip(_name, COUNTER, randDna, level, randRarity, sex, vida, habil, fuerza, defenza, poder);\n        lips.push(newLip);\n        _safeMint(msg.sender, COUNTER);\n        emit NewLip(msg.sender, COUNTER, randDna);\n        COUNTER++;\n    }\n\n    // ============================================\n    // Creacin de un labio aleatorio\n    function createRandomLip(string memory _name) public payable {\n        require(msg.value >= fee);\n        _createLip(_name);\n    }\n\n    // Obtencin de todos los lips (labios)\n    function getLips() public view returns (Lip [] memory) {\n        return lips;\n    }\n\n    // Visualizar el balance del Smart Contract \n    function moneySmartContract() public view returns (uint256){\n        return address(this).balance;\n    }\n\n    // Visualizar la direccin del Smart Contract\n    function addressSmartContract() public view returns (address) {\n        return address(this);\n    }\n\n    // Obtencin de los tokens NFT usuario\n    function getOwnerLips(address _owner) public view returns (Lip [] memory) {\n        Lip [] memory result = new Lip [] (balanceOf(_owner));\n        uint256 counter = 0;\n        for (uint256 i = 0; i <lips.length; i++) {\n            if (ownerOf(i) == _owner) {\n                result[counter] = lips[i];\n                counter++;\n            }\n        }\n        return result;\n    }\n\n    // Subir de nivel los tokens NFT \n    function levelUp(uint256 _lipId) public payable {\n        require(ownerOf(_lipId) == msg.sender);\n         require(msg.value >= fee);\n        Lip storage lip = lips[_lipId];\n        lip.level++;\n    }\n\n // Subir Vida los tokens NFT \n    function vidaUp(uint256 _lipId) public payable {\n        require(ownerOf(_lipId) == msg.sender);\n         require(msg.value >= fee);\n        Lip storage lip = lips[_lipId];\n        uint auvi;\n        auvi = 15;\n        lip.vida = lip.vida + auvi;\n    }\n\n\n    \n\n    // Subir habilidad los tokens NFT \n    function habilUp(uint256 _lipId) public payable {\n        require(ownerOf(_lipId) == msg.sender);\n         require(msg.value >= fee);\n        Lip storage lip = lips[_lipId];\n        uint auvi;\n        auvi = 3;\n        lip.habil = lip.habil + auvi;\n    }\n\n    // Subir Fuerza los tokens NFT \n    function fuerzaUp(uint256 _lipId) public payable {\n        require(ownerOf(_lipId) == msg.sender);\n         require(msg.value >= fee);\n        Lip storage lip = lips[_lipId];\n        uint auvi;\n        auvi = 5;\n        lip.fuerza = lip.fuerza + auvi;\n    }\n\n    // Subir Defenza los tokens NFT \n    function defenzaUp(uint256 _lipId) public payable {\n        require(ownerOf(_lipId) == msg.sender);\n         require(msg.value >= fee);\n        Lip storage lip = lips[_lipId];\n        uint auvi;\n        auvi = 3;\n        lip.defenza = lip.defenza + auvi;\n    }\n\n    // Subir Poder los tokens NFT \n    function poderUp(uint256 _lipId) public payable {\n        require(ownerOf(_lipId) == msg.sender);\n         require(msg.value >= fee);\n        Lip storage lip = lips[_lipId];\n        uint auvi;\n        auvi = 10;\n        lip.poder = lip.poder + auvi;\n    }\n\n}",
  "sourcePath": "C:\\Users\\digit\\OneDrive\\Escritorio\\nft-1\\contracts\\LipToken.sol",
  "compiler": {
    "name": "solc",
    "version": "0.8.1+commit.df193b15.Emscripten.clang"
  },
  "schemaVersion": "3.4.3",
  "updatedAt": "2021-12-19T23:39:26.594Z",
  "devdoc": {
    "kind": "dev",
    "methods": {
      "approve(address,uint256)": {
        "details": "See {IERC721-approve}."
      },
      "balanceOf(address)": {
        "details": "See {IERC721-balanceOf}."
      },
      "getApproved(uint256)": {
        "details": "See {IERC721-getApproved}."
      },
      "isApprovedForAll(address,address)": {
        "details": "See {IERC721-isApprovedForAll}."
      },
      "name()": {
        "details": "See {IERC721Metadata-name}."
      },
      "owner()": {
        "details": "Returns the address of the current owner."
      },
      "ownerOf(uint256)": {
        "details": "See {IERC721-ownerOf}."
      },
      "renounceOwnership()": {
        "details": "Leaves the contract without owner. It will not be possible to call `onlyOwner` functions anymore. Can only be called by the current owner. NOTE: Renouncing ownership will leave the contract without an owner, thereby removing any functionality that is only available to the owner."
      },
      "safeTransferFrom(address,address,uint256)": {
        "details": "See {IERC721-safeTransferFrom}."
      },
      "safeTransferFrom(address,address,uint256,bytes)": {
        "details": "See {IERC721-safeTransferFrom}."
      },
      "setApprovalForAll(address,bool)": {
        "details": "See {IERC721-setApprovalForAll}."
      },
      "supportsInterface(bytes4)": {
        "details": "See {IERC165-supportsInterface}."
      },
      "symbol()": {
        "details": "See {IERC721Metadata-symbol}."
      },
      "tokenURI(uint256)": {
        "details": "See {IERC721Metadata-tokenURI}."
      },
      "transferFrom(address,address,uint256)": {
        "details": "See {IERC721-transferFrom}."
      },
      "transferOwnership(address)": {
        "details": "Transfers ownership of the contract to a new account (`newOwner`). Can only be called by the current owner."
      }
    },
    "version": 1
  },
  "userdoc": {
    "kind": "user",
    "methods": {},
    "version": 1
  }
}