{
  "contractName": "LipToken",
  "abi": [
    {
      "inputs": [
        {
          "internalType": "string",
          "name": "_name",
          "type": "string"
        },
        {
          "internalType": "string",
          "name": "_symbol",
          "type": "string"
        }
      ],
      "stateMutability": "nonpayable",
      "type": "constructor"
    },
    {
      "anonymous": false,
      "inputs": [
        {
          "indexed": true,
          "internalType": "address",
          "name": "owner",
          "type": "address"
        },
        {
          "indexed": true,
          "internalType": "address",
          "name": "approved",
          "type": "address"
        },
        {
          "indexed": true,
          "internalType": "uint256",
          "name": "tokenId",
          "type": "uint256"
        }
      ],
      "name": "Approval",
      "type": "event"
    },
    {
      "anonymous": false,
      "inputs": [
        {
          "indexed": true,
          "internalType": "address",
          "name": "owner",
          "type": "address"
        },
        {
          "indexed": true,
          "internalType": "address",
          "name": "operator",
          "type": "address"
        },
        {
          "indexed": false,
          "internalType": "bool",
          "name": "approved",
          "type": "bool"
        }
      ],
      "name": "ApprovalForAll",
      "type": "event"
    },
    {
      "anonymous": false,
      "inputs": [
        {
          "indexed": true,
          "internalType": "address",
          "name": "owner",
          "type": "address"
        },
        {
          "indexed": false,
          "internalType": "uint256",
          "name": "id",
          "type": "uint256"
        },
        {
          "indexed": false,
          "internalType": "uint256",
          "name": "dna",
          "type": "uint256"
        }
      ],
      "name": "NewLip",
      "type": "event"
    },
    {
      "anonymous": false,
      "inputs": [
        {
          "indexed": true,
          "internalType": "address",
          "name": "previousOwner",
          "type": "address"
        },
        {
          "indexed": true,
          "internalType": "address",
          "name": "newOwner",
          "type": "address"
        }
      ],
      "name": "OwnershipTransferred",
      "type": "event"
    },
    {
      "anonymous": false,
      "inputs": [
        {
          "indexed": true,
          "internalType": "address",
          "name": "from",
          "type": "address"
        },
        {
          "indexed": true,
          "internalType": "address",
          "name": "to",
          "type": "address"
        },
        {
          "indexed": true,
          "internalType": "uint256",
          "name": "tokenId",
          "type": "uint256"
        }
      ],
      "name": "Transfer",
      "type": "event"
    },
    {
      "inputs": [
        {
          "internalType": "address",
          "name": "to",
          "type": "address"
        },
        {
          "internalType": "uint256",
          "name": "tokenId",
          "type": "uint256"
        }
      ],
      "name": "approve",
      "outputs": [],
      "stateMutability": "nonpayable",
      "type": "function"
    },
    {
      "inputs": [
        {
          "internalType": "address",
          "name": "owner",
          "type": "address"
        }
      ],
      "name": "balanceOf",
      "outputs": [
        {
          "internalType": "uint256",
          "name": "",
          "type": "uint256"
        }
      ],
      "stateMutability": "view",
      "type": "function",
      "constant": true
    },
    {
      "inputs": [
        {
          "internalType": "uint256",
          "name": "tokenId",
          "type": "uint256"
        }
      ],
      "name": "getApproved",
      "outputs": [
        {
          "internalType": "address",
          "name": "",
          "type": "address"
        }
      ],
      "stateMutability": "view",
      "type": "function",
      "constant": true
    },
    {
      "inputs": [
        {
          "internalType": "address",
          "name": "owner",
          "type": "address"
        },
        {
          "internalType": "address",
          "name": "operator",
          "type": "address"
        }
      ],
      "name": "isApprovedForAll",
      "outputs": [
        {
          "internalType": "bool",
          "name": "",
          "type": "bool"
        }
      ],
      "stateMutability": "view",
      "type": "function",
      "constant": true
    },
    {
      "inputs": [
        {
          "internalType": "uint256",
          "name": "",
          "type": "uint256"
        }
      ],
      "name": "lips",
      "outputs": [
        {
          "internalType": "string",
          "name": "name",
          "type": "string"
        },
        {
          "internalType": "uint256",
          "name": "id",
          "type": "uint256"
        },
        {
          "internalType": "uint256",
          "name": "dna",
          "type": "uint256"
        },
        {
          "internalType": "uint256",
          "name": "level",
          "type": "uint256"
        },
        {
          "internalType": "uint8",
          "name": "rarity",
          "type": "uint8"
        },
        {
          "internalType": "string",
          "name": "sex",
          "type": "string"
        },
        {
          "internalType": "uint256",
          "name": "vida",
          "type": "uint256"
        },
        {
          "internalType": "uint256",
          "name": "habil",
          "type": "uint256"
        },
        {
          "internalType": "uint256",
          "name": "fuerza",
          "type": "uint256"
        },
        {
          "internalType": "uint256",
          "name": "defenza",
          "type": "uint256"
        },
        {
          "internalType": "uint256",
          "name": "poder",
          "type": "uint256"
        }
      ],
      "stateMutability": "view",
      "type": "function",
      "constant": true
    },
    {
      "inputs": [],
      "name": "name",
      "outputs": [
        {
          "internalType": "string",
          "name": "",
          "type": "string"
        }
      ],
      "stateMutability": "view",
      "type": "function",
      "constant": true
    },
    {
      "inputs": [],
      "name": "owner",
      "outputs": [
        {
          "internalType": "address",
          "name": "",
          "type": "address"
        }
      ],
      "stateMutability": "view",
      "type": "function",
      "constant": true
    },
    {
      "inputs": [
        {
          "internalType": "uint256",
          "name": "tokenId",
          "type": "uint256"
        }
      ],
      "name": "ownerOf",
      "outputs": [
        {
          "internalType": "address",
          "name": "",
          "type": "address"
        }
      ],
      "stateMutability": "view",
      "type": "function",
      "constant": true
    },
    {
      "inputs": [],
      "name": "renounceOwnership",
      "outputs": [],
      "stateMutability": "nonpayable",
      "type": "function"
    },
    {
      "inputs": [
        {
          "internalType": "address",
          "name": "from",
          "type": "address"
        },
        {
          "internalType": "address",
          "name": "to",
          "type": "address"
        },
        {
          "internalType": "uint256",
          "name": "tokenId",
          "type": "uint256"
        }
      ],
      "name": "safeTransferFrom",
      "outputs": [],
      "stateMutability": "nonpayable",
      "type": "function"
    },
    {
      "inputs": [
        {
          "internalType": "address",
          "name": "from",
          "type": "address"
        },
        {
          "internalType": "address",
          "name": "to",
          "type": "address"
        },
        {
          "internalType": "uint256",
          "name": "tokenId",
          "type": "uint256"
        },
        {
          "internalType": "bytes",
          "name": "_data",
          "type": "bytes"
        }
      ],
      "name": "safeTransferFrom",
      "outputs": [],
      "stateMutability": "nonpayable",
      "type": "function"
    },
    {
      "inputs": [
        {
          "internalType": "address",
          "name": "operator",
          "type": "address"
        },
        {
          "internalType": "bool",
          "name": "approved",
          "type": "bool"
        }
      ],
      "name": "setApprovalForAll",
      "outputs": [],
      "stateMutability": "nonpayable",
      "type": "function"
    },
    {
      "inputs": [
        {
          "internalType": "bytes4",
          "name": "interfaceId",
          "type": "bytes4"
        }
      ],
      "name": "supportsInterface",
      "outputs": [
        {
          "internalType": "bool",
          "name": "",
          "type": "bool"
        }
      ],
      "stateMutability": "view",
      "type": "function",
      "constant": true
    },
    {
      "inputs": [],
      "name": "symbol",
      "outputs": [
        {
          "internalType": "string",
          "name": "",
          "type": "string"
        }
      ],
      "stateMutability": "view",
      "type": "function",
      "constant": true
    },
    {
      "inputs": [
        {
          "internalType": "uint256",
          "name": "tokenId",
          "type": "uint256"
        }
      ],
      "name": "tokenURI",
      "outputs": [
        {
          "internalType": "string",
          "name": "",
          "type": "string"
        }
      ],
      "stateMutability": "view",
      "type": "function",
      "constant": true
    },
    {
      "inputs": [
        {
          "internalType": "address",
          "name": "from",
          "type": "address"
        },
        {
          "internalType": "address",
          "name": "to",
          "type": "address"
        },
        {
          "internalType": "uint256",
          "name": "tokenId",
          "type": "uint256"
        }
      ],
      "name": "transferFrom",
      "outputs": [],
      "stateMutability": "nonpayable",
      "type": "function"
    },
    {
      "inputs": [
        {
          "internalType": "address",
          "name": "newOwner",
          "type": "address"
        }
      ],
      "name": "transferOwnership",
      "outputs": [],
      "stateMutability": "nonpayable",
      "type": "function"
    },
    {
      "inputs": [
        {
          "internalType": "uint256",
          "name": "_fee",
          "type": "uint256"
        }
      ],
      "name": "updateFee",
      "outputs": [],
      "stateMutability": "nonpayable",
      "type": "function"
    },
    {
      "inputs": [],
      "name": "withdraw",
      "outputs": [],
      "stateMutability": "payable",
      "type": "function",
      "payable": true
    },
    {
      "inputs": [
        {
          "internalType": "string",
          "name": "_name",
          "type": "string"
        },
        {
          "internalType": "uint256",
          "name": "_cant",
          "type": "uint256"
        }
      ],
      "name": "createRandomLip",
      "outputs": [],
      "stateMutability": "payable",
      "type": "function",
      "payable": true
    },
    {
      "inputs": [],
      "name": "getLips",
      "outputs": [
        {
          "components": [
            {
              "internalType": "string",
              "name": "name",
              "type": "string"
            },
            {
              "internalType": "uint256",
              "name": "id",
              "type": "uint256"
            },
            {
              "internalType": "uint256",
              "name": "dna",
              "type": "uint256"
            },
            {
              "internalType": "uint256",
              "name": "level",
              "type": "uint256"
            },
            {
              "internalType": "uint8",
              "name": "rarity",
              "type": "uint8"
            },
            {
              "internalType": "string",
              "name": "sex",
              "type": "string"
            },
            {
              "internalType": "uint256",
              "name": "vida",
              "type": "uint256"
            },
            {
              "internalType": "uint256",
              "name": "habil",
              "type": "uint256"
            },
            {
              "internalType": "uint256",
              "name": "fuerza",
              "type": "uint256"
            },
            {
              "internalType": "uint256",
              "name": "defenza",
              "type": "uint256"
            },
            {
              "internalType": "uint256",
              "name": "poder",
              "type": "uint256"
            }
          ],
          "internalType": "struct LipToken.Lip[]",
          "name": "",
          "type": "tuple[]"
        }
      ],
      "stateMutability": "view",
      "type": "function",
      "constant": true
    },
    {
      "inputs": [],
      "name": "moneySmartContract",
      "outputs": [
        {
          "internalType": "uint256",
          "name": "",
          "type": "uint256"
        }
      ],
      "stateMutability": "view",
      "type": "function",
      "constant": true
    },
    {
      "inputs": [],
      "name": "addressSmartContract",
      "outputs": [
        {
          "internalType": "address",
          "name": "",
          "type": "address"
        }
      ],
      "stateMutability": "view",
      "type": "function",
      "constant": true
    },
    {
      "inputs": [
        {
          "internalType": "address",
          "name": "_owner",
          "type": "address"
        }
      ],
      "name": "getOwnerLips",
      "outputs": [
        {
          "components": [
            {
              "internalType": "string",
              "name": "name",
              "type": "string"
            },
            {
              "internalType": "uint256",
              "name": "id",
              "type": "uint256"
            },
            {
              "internalType": "uint256",
              "name": "dna",
              "type": "uint256"
            },
            {
              "internalType": "uint256",
              "name": "level",
              "type": "uint256"
            },
            {
              "internalType": "uint8",
              "name": "rarity",
              "type": "uint8"
            },
            {
              "internalType": "string",
              "name": "sex",
              "type": "string"
            },
            {
              "internalType": "uint256",
              "name": "vida",
              "type": "uint256"
            },
            {
              "internalType": "uint256",
              "name": "habil",
              "type": "uint256"
            },
            {
              "internalType": "uint256",
              "name": "fuerza",
              "type": "uint256"
            },
            {
              "internalType": "uint256",
              "name": "defenza",
              "type": "uint256"
            },
            {
              "internalType": "uint256",
              "name": "poder",
              "type": "uint256"
            }
          ],
          "internalType": "struct LipToken.Lip[]",
          "name": "",
          "type": "tuple[]"
        }
      ],
      "stateMutability": "view",
      "type": "function",
      "constant": true
    },
    {
      "inputs": [
        {
          "internalType": "uint256",
          "name": "_lipId",
          "type": "uint256"
        }
      ],
      "name": "levelUp",
      "outputs": [],
      "stateMutability": "payable",
      "type": "function",
      "payable": true
    },
    {
      "inputs": [
        {
          "internalType": "uint256",
          "name": "_lipId",
          "type": "uint256"
        }
      ],
      "name": "vidaUp",
      "outputs": [],
      "stateMutability": "payable",
      "type": "function",
      "payable": true
    },
    {
      "inputs": [
        {
          "internalType": "uint256",
          "name": "_lipId",
          "type": "uint256"
        }
      ],
      "name": "habilUp",
      "outputs": [],
      "stateMutability": "payable",
      "type": "function",
      "payable": true
    },
    {
      "inputs": [
        {
          "internalType": "uint256",
          "name": "_lipId",
          "type": "uint256"
        }
      ],
      "name": "fuerzaUp",
      "outputs": [],
      "stateMutability": "payable",
      "type": "function",
      "payable": true
    },
    {
      "inputs": [
        {
          "internalType": "uint256",
          "name": "_lipId",
          "type": "uint256"
        }
      ],
      "name": "defenzaUp",
      "outputs": [],
      "stateMutability": "payable",
      "type": "function",
      "payable": true
    },
    {
      "inputs": [
        {
          "internalType": "uint256",
          "name": "_lipId",
          "type": "uint256"
        }
      ],
      "name": "poderUp",
      "outputs": [],
      "stateMutability": "payable",
      "type": "function",
      "payable": true
    }
  ],
  "bytecode": "0x608060405266038d7ea4c680006008553480156200001c57600080fd5b5060405162002da038038062002da08339810160408190526200003f9162000242565b81518290829062000058906000906020850190620000e9565b5080516200006e906001906020840190620000e9565b5050506200008b620000856200009360201b60201c565b62000097565b5050620002fc565b3390565b600680546001600160a01b038381166001600160a01b0319831681179093556040519116919082907f8be0079c531659141344cd1fd0a4f28419497f9722a3daafe3b4186f6b6457e090600090a35050565b828054620000f790620002a9565b90600052602060002090601f0160209004810192826200011b576000855562000166565b82601f106200013657805160ff191683800117855562000166565b8280016001018555821562000166579182015b828111156200016657825182559160200191906001019062000149565b506200017492915062000178565b5090565b5b8082111562000174576000815560010162000179565b600082601f830112620001a0578081fd5b81516001600160401b0380821115620001bd57620001bd620002e6565b604051601f8301601f19908116603f01168101908282118183101715620001e857620001e8620002e6565b8160405283815260209250868385880101111562000204578485fd5b8491505b8382101562000227578582018301518183018401529082019062000208565b838211156200023857848385830101525b9695505050505050565b6000806040838503121562000255578182fd5b82516001600160401b03808211156200026c578384fd5b6200027a868387016200018f565b9350602085015191508082111562000290578283fd5b506200029f858286016200018f565b9150509250929050565b600281046001821680620002be57607f821691505b60208210811415620002e057634e487b7160e01b600052602260045260246000fd5b50919050565b634e487b7160e01b600052604160045260246000fd5b612a94806200030c6000396000f3fe6080604052600436106101cd5760003560e01c80637f9b0ff0116100f7578063a22cb46511610095578063c87b56dd11610064578063c87b56dd146104c2578063dd7c1757146104e2578063e985e9c5146104f5578063f2fde38b14610515576101cd565b8063a22cb4651461045a578063a8f4bfe81461047a578063b88d4fde1461048d578063c2f5168a146104ad576101cd565b80638da5cb5b116100d15780638da5cb5b146103fb5780639012c4a81461041057806395d89b411461043057806399470ee614610445576101cd565b80637f9b0ff0146103a657806383b5daf7146103b95780638c0b9c54146103db576101cd565b8063304b1e2e1161016f5780635f3a26e41161013e5780635f3a26e4146103315780636352211e1461034457806370a0823114610364578063715018a614610391576101cd565b8063304b1e2e146102bf5780633ccfd60b146102d257806342842e0e146102da5780635ec163db146102fa576101cd565b8063095ea7b3116101ab578063095ea7b3146102575780630ce90ec2146102795780630d5d53ba1461028c57806323b872dd1461029f576101cd565b806301ffc9a7146101d257806306fdde0314610208578063081812fc1461022a575b600080fd5b3480156101de57600080fd5b506101f26101ed36600461214c565b610535565b6040516101ff91906123b3565b60405180910390f35b34801561021457600080fd5b5061021d61057d565b6040516101ff91906123be565b34801561023657600080fd5b5061024a6102453660046121da565b61060f565b6040516101ff9190612274565b34801561026357600080fd5b50610277610272366004612123565b61065b565b005b6102776102873660046121da565b6106f3565b61027761029a3660046121da565b610770565b3480156102ab57600080fd5b506102776102ba366004612035565b6107f2565b6102776102cd3660046121da565b61082a565b6102776108ac565b3480156102e657600080fd5b506102776102f5366004612035565b610931565b34801561030657600080fd5b5061031a6103153660046121da565b61094c565b6040516101ff9b9a999897969594939291906123d1565b61027761033f3660046121da565b610ace565b34801561035057600080fd5b5061024a61035f3660046121da565b610b50565b34801561037057600080fd5b5061038461037f366004611fe9565b610b85565b6040516101ff91906128ac565b34801561039d57600080fd5b50610277610bc9565b6102776103b4366004612184565b610c14565b3480156103c557600080fd5b506103ce610c2d565b6040516101ff91906122c5565b3480156103e757600080fd5b506103ce6103f6366004611fe9565b610e12565b34801561040757600080fd5b5061024a6110c6565b34801561041c57600080fd5b5061027761042b3660046121da565b6110d5565b34801561043c57600080fd5b5061021d611119565b34801561045157600080fd5b50610384611128565b34801561046657600080fd5b506102776104753660046120e9565b61112c565b6102776104883660046121da565b61113e565b34801561049957600080fd5b506102776104a8366004612070565b6111c0565b3480156104b957600080fd5b5061024a6111ff565b3480156104ce57600080fd5b5061021d6104dd3660046121da565b611203565b6102776104f03660046121da565b611286565b34801561050157600080fd5b506101f2610510366004612003565b611308565b34801561052157600080fd5b50610277610530366004611fe9565b611336565b60006001600160e01b031982166380ac58cd60e01b148061056657506001600160e01b03198216635b5e139f60e01b145b806105755750610575826113a7565b90505b919050565b60606000805461058c9061299c565b80601f01602080910402602001604051908101604052809291908181526020018280546105b89061299c565b80156106055780601f106105da57610100808354040283529160200191610605565b820191906000526020600020905b8154815290600101906020018083116105e857829003601f168201915b5050505050905090565b600061061a826113c0565b61063f5760405162461bcd60e51b815260040161063690612701565b60405180910390fd5b506000908152600460205260409020546001600160a01b031690565b600061066682610b50565b9050806001600160a01b0316836001600160a01b0316141561069a5760405162461bcd60e51b81526004016106369061281a565b806001600160a01b03166106ac6113dd565b6001600160a01b031614806106c857506106c8816105106113dd565b6106e45760405162461bcd60e51b8152600401610636906125dc565b6106ee83836113e1565b505050565b336106fd82610b50565b6001600160a01b03161461071057600080fd5b60085434101561071f57600080fd5b6000600c828154811061074257634e487b7160e01b600052603260045260246000fd5b90600052602060002090600b02019050806003016000815480929190610767906129d7565b91905055505050565b3361077a82610b50565b6001600160a01b03161461078d57600080fd5b60085434101561079c57600080fd5b6000600c82815481106107bf57634e487b7160e01b600052603260045260246000fd5b90600052602060002090600b020190506000600590508082600801546107e591906128c3565b8260080181905550505050565b6108036107fd6113dd565b8261144f565b61081f5760405162461bcd60e51b81526004016106369061285b565b6106ee8383836114d4565b3361083482610b50565b6001600160a01b03161461084757600080fd5b60085434101561085657600080fd5b6000600c828154811061087957634e487b7160e01b600052603260045260246000fd5b90600052602060002090600b0201905060006003905080826009015461089f91906128c3565b8260090181905550505050565b6108b46113dd565b6001600160a01b03166108c56110c6565b6001600160a01b0316146108eb5760405162461bcd60e51b81526004016106369061274d565b60006108f56110c6565b6040519091506001600160a01b038216904780156108fc02916000818181858888f1935050505015801561092d573d6000803e3d6000fd5b5050565b6106ee838383604051806020016040528060008152506111c0565b600c818154811061095c57600080fd5b90600052602060002090600b020160009150905080600001805461097f9061299c565b80601f01602080910402602001604051908101604052809291908181526020018280546109ab9061299c565b80156109f85780601f106109cd576101008083540402835291602001916109f8565b820191906000526020600020905b8154815290600101906020018083116109db57829003601f168201915b50505060018401546002850154600386015460048701546005880180549798949793965091945060ff169291610a2d9061299c565b80601f0160208091040260200160405190810160405280929190818152602001828054610a599061299c565b8015610aa65780601f10610a7b57610100808354040283529160200191610aa6565b820191906000526020600020905b815481529060010190602001808311610a8957829003601f168201915b50505050509080600601549080600701549080600801549080600901549080600a015490508b565b33610ad882610b50565b6001600160a01b031614610aeb57600080fd5b600854341015610afa57600080fd5b6000600c8281548110610b1d57634e487b7160e01b600052603260045260246000fd5b90600052602060002090600b02019050600060039050808260070154610b4391906128c3565b8260070181905550505050565b6000818152600260205260408120546001600160a01b0316806105755760405162461bcd60e51b815260040161063690612683565b60006001600160a01b038216610bad5760405162461bcd60e51b815260040161063690612639565b506001600160a01b031660009081526003602052604090205490565b610bd16113dd565b6001600160a01b0316610be26110c6565b6001600160a01b031614610c085760405162461bcd60e51b81526004016106369061274d565b610c126000611601565b565b600854341015610c2357600080fd5b61092d8282611653565b6060600c805480602002602001604051908101604052809291908181526020016000905b82821015610e0957838290600052602060002090600b020160405180610160016040529081600082018054610c859061299c565b80601f0160208091040260200160405190810160405280929190818152602001828054610cb19061299c565b8015610cfe5780601f10610cd357610100808354040283529160200191610cfe565b820191906000526020600020905b815481529060010190602001808311610ce157829003601f168201915b5050509183525050600182015460208201526002820154604082015260038201546060820152600482015460ff16608082015260058201805460a090920191610d469061299c565b80601f0160208091040260200160405190810160405280929190818152602001828054610d729061299c565b8015610dbf5780601f10610d9457610100808354040283529160200191610dbf565b820191906000526020600020905b815481529060010190602001808311610da257829003601f168201915b5050505050815260200160068201548152602001600782015481526020016008820154815260200160098201548152602001600a8201548152505081526020019060010190610c51565b50505050905090565b60606000610e1f83610b85565b67ffffffffffffffff811115610e4557634e487b7160e01b600052604160045260246000fd5b604051908082528060200260200182016040528015610e7e57816020015b610e6b611e66565b815260200190600190039081610e635790505b5090506000805b600c548110156110bd57846001600160a01b0316610ea282610b50565b6001600160a01b031614156110ab57600c8181548110610ed257634e487b7160e01b600052603260045260246000fd5b90600052602060002090600b020160405180610160016040529081600082018054610efc9061299c565b80601f0160208091040260200160405190810160405280929190818152602001828054610f289061299c565b8015610f755780601f10610f4a57610100808354040283529160200191610f75565b820191906000526020600020905b815481529060010190602001808311610f5857829003601f168201915b5050509183525050600182015460208201526002820154604082015260038201546060820152600482015460ff16608082015260058201805460a090920191610fbd9061299c565b80601f0160208091040260200160405190810160405280929190818152602001828054610fe99061299c565b80156110365780601f1061100b57610100808354040283529160200191611036565b820191906000526020600020905b81548152906001019060200180831161101957829003601f168201915b5050505050815260200160068201548152602001600782015481526020016008820154815260200160098201548152602001600a8201548152505083838151811061109157634e487b7160e01b600052603260045260246000fd5b602002602001018190525081806110a7906129d7565b9250505b806110b5816129d7565b915050610e85565b50909392505050565b6006546001600160a01b031690565b6110dd6113dd565b6001600160a01b03166110ee6110c6565b6001600160a01b0316146111145760405162461bcd60e51b81526004016106369061274d565b600855565b60606001805461058c9061299c565b4790565b61092d6111376113dd565b83836119dc565b3361114882610b50565b6001600160a01b03161461115b57600080fd5b60085434101561116a57600080fd5b6000600c828154811061118d57634e487b7160e01b600052603260045260246000fd5b90600052602060002090600b020190506000600a90508082600a01546111b391906128c3565b82600a0181905550505050565b6111d16111cb6113dd565b8361144f565b6111ed5760405162461bcd60e51b81526004016106369061285b565b6111f984848484611a7f565b50505050565b3090565b606061120e826113c0565b61122a5760405162461bcd60e51b8152600401610636906127cb565b6000611234611ab2565b90506000815111611254576040518060200160405280600081525061127f565b8061125e84611ac4565b60405160200161126f929190612225565b6040516020818303038152906040525b9392505050565b3361129082610b50565b6001600160a01b0316146112a357600080fd5b6008543410156112b257600080fd5b6000600c82815481106112d557634e487b7160e01b600052603260045260246000fd5b90600052602060002090600b020190506000600f90508082600601546112fb91906128c3565b8260060181905550505050565b6001600160a01b03918216600090815260056020908152604080832093909416825291909152205460ff1690565b61133e6113dd565b6001600160a01b031661134f6110c6565b6001600160a01b0316146113755760405162461bcd60e51b81526004016106369061274d565b6001600160a01b03811661139b5760405162461bcd60e51b815260040161063690612498565b6113a481611601565b50565b6001600160e01b031981166301ffc9a760e01b14919050565b6000908152600260205260409020546001600160a01b0316151590565b3390565b600081815260046020526040902080546001600160a01b0319166001600160a01b038416908117909155819061141682610b50565b6001600160a01b03167f8c5be1e5ebec7d5bd14f71427d1e84f3dd0314c0f7b2291e5b200ac8c7c3b92560405160405180910390a45050565b600061145a826113c0565b6114765760405162461bcd60e51b815260040161063690612590565b600061148183610b50565b9050806001600160a01b0316846001600160a01b031614806114bc5750836001600160a01b03166114b18461060f565b6001600160a01b0316145b806114cc57506114cc8185611308565b949350505050565b826001600160a01b03166114e782610b50565b6001600160a01b03161461150d5760405162461bcd60e51b815260040161063690612782565b6001600160a01b0382166115335760405162461bcd60e51b815260040161063690612515565b61153e8383836106ee565b6115496000826113e1565b6001600160a01b0383166000908152600360205260408120805460019290611572908490612959565b90915550506001600160a01b03821660009081526003602052604081208054600192906115a09084906128c3565b909155505060008181526002602052604080822080546001600160a01b0319166001600160a01b0386811691821790925591518493918716917fddf252ad1be2c89b69c2b068fc378daa952ba7f163c4a11628f55a4df523b3ef91a4505050565b600680546001600160a01b038381166001600160a01b0319831681179093556040519116919082907f8be0079c531659141344cd1fd0a4f28419497f9722a3daafe3b4186f6b6457e090600090a35050565b600b819055600061166a662386f26fc10000611bdf565b905060006116786064611bdf565b90506000611687610441611bdf565b905060006116996305f5e100426128db565b905060015b600b5481116119d3576116b2826007612911565b91506116bf856023612911565b94506116cc846003612930565b9350600a54600014156116df576001600a555b6116ea6002846129f2565b61171c57604080518082019091526001808252602360f91b602090920191825261171691600991611ec3565b50611746565b604080518082019091526001808252604d60f81b602090920191825261174491600991611ec3565b505b60408051610160810182528881526007546020820152908101869052600a54606082015260ff8516608082015260098054600592839283928392600092909160a0830191906117949061299c565b80601f01602080910402602001604051908101604052809291908181526020018280546117c09061299c565b801561180d5780601f106117e25761010080835404028352916020019161180d565b820191906000526020600020905b8154815290600101906020018083116117f057829003601f168201915b505050918352505060208082018a905260408201889052606082018790526080820186905260a0909101849052600c8054600181018255600091909152825180519394508493600b9092027fdf6966c971051c3d54ec59162606531493a51404a002842f56009d7e5cf4a8c7019261188a92849290910190611ec3565b5060208281015160018301556040830151600283015560608301516003830155608083015160048301805460ff191660ff90921691909117905560a083015180516118db9260058501920190611ec3565b5060c0820151816006015560e082015181600701556101008201518160080155610120820151816009015561014082015181600a0155505061191f33600754611c19565b336001600160a01b03167f24d2d558f98bdd9d21339e119fc0b03e213c7d05affd838ac2ee136d90e3bbeb6007548c60405161195c9291906128b5565b60405180910390a261196f600f886128db565b965061197c60198b6128db565b99506119898a6007612911565b60078054919b50600061199b836129d7565b909155506119ac9050600a8a6128ef565b98506119b960058a6128ef565b9850505050505080806119cb906129d7565b91505061169e565b50505050505050565b816001600160a01b0316836001600160a01b03161415611a0e5760405162461bcd60e51b815260040161063690612559565b6001600160a01b0383811660008181526005602090815260408083209487168084529490915290819020805460ff1916851515179055517f17307eab39ab6107e8899845ad3d59bd9653f200f220920489ca2b5937696c3190611a729085906123b3565b60405180910390a3505050565b611a8a8484846114d4565b611a9684848484611c33565b6111f95760405162461bcd60e51b815260040161063690612446565b60408051602081019091526000815290565b606081611ae957506040805180820190915260018152600360fc1b6020820152610578565b8160005b8115611b135780611afd816129d7565b9150611b0c9050600a836128db565b9150611aed565b60008167ffffffffffffffff811115611b3c57634e487b7160e01b600052604160045260246000fd5b6040519080825280601f01601f191660200182016040528015611b66576020820181803683370190505b5090505b84156114cc57611b7b600183612959565b9150611b88600a866129f2565b611b939060306128c3565b60f81b818381518110611bb657634e487b7160e01b600052603260045260246000fd5b60200101906001600160f81b031916908160001a905350611bd8600a866128db565b9450611b6a565b6000804233604051602001611bf5929190612254565b60408051601f198184030181529190528051602090910120905061127f83826129f2565b61092d828260405180602001604052806000815250611d4e565b6000611c47846001600160a01b0316611d81565b15611d4357836001600160a01b031663150b7a02611c636113dd565b8786866040518563ffffffff1660e01b8152600401611c859493929190612288565b602060405180830381600087803b158015611c9f57600080fd5b505af1925050508015611ccf575060408051601f3d908101601f19168201909252611ccc91810190612168565b60015b611d29573d808015611cfd576040519150601f19603f3d011682016040523d82523d6000602084013e611d02565b606091505b508051611d215760405162461bcd60e51b815260040161063690612446565b805181602001fd5b6001600160e01b031916630a85bd0160e11b1490506114cc565b506001949350505050565b611d588383611d87565b611d656000848484611c33565b6106ee5760405162461bcd60e51b815260040161063690612446565b3b151590565b6001600160a01b038216611dad5760405162461bcd60e51b8152600401610636906126cc565b611db6816113c0565b15611dd35760405162461bcd60e51b8152600401610636906124de565b611ddf600083836106ee565b6001600160a01b0382166000908152600360205260408120805460019290611e089084906128c3565b909155505060008181526002602052604080822080546001600160a01b0319166001600160a01b03861690811790915590518392907fddf252ad1be2c89b69c2b068fc378daa952ba7f163c4a11628f55a4df523b3ef908290a45050565b60405180610160016040528060608152602001600081526020016000815260200160008152602001600060ff1681526020016060815260200160008152602001600081526020016000815260200160008152602001600081525090565b828054611ecf9061299c565b90600052602060002090601f016020900481019282611ef15760008555611f37565b82601f10611f0a57805160ff1916838001178555611f37565b82800160010185558215611f37579182015b82811115611f37578251825591602001919060010190611f1c565b50611f43929150611f47565b5090565b5b80821115611f435760008155600101611f48565b600067ffffffffffffffff80841115611f7757611f77612a32565b604051601f8501601f19908116603f01168101908282118183101715611f9f57611f9f612a32565b81604052809350858152868686011115611fb857600080fd5b858560208301376000602087830101525050509392505050565b80356001600160a01b038116811461057857600080fd5b600060208284031215611ffa578081fd5b61127f82611fd2565b60008060408385031215612015578081fd5b61201e83611fd2565b915061202c60208401611fd2565b90509250929050565b600080600060608486031215612049578081fd5b61205284611fd2565b925061206060208501611fd2565b9150604084013590509250925092565b60008060008060808587031215612085578081fd5b61208e85611fd2565b935061209c60208601611fd2565b925060408501359150606085013567ffffffffffffffff8111156120be578182fd5b8501601f810187136120ce578182fd5b6120dd87823560208401611f5c565b91505092959194509250565b600080604083850312156120fb578182fd5b61210483611fd2565b915060208301358015158114612118578182fd5b809150509250929050565b60008060408385031215612135578182fd5b61213e83611fd2565b946020939093013593505050565b60006020828403121561215d578081fd5b813561127f81612a48565b600060208284031215612179578081fd5b815161127f81612a48565b60008060408385031215612196578182fd5b823567ffffffffffffffff8111156121ac578283fd5b8301601f810185136121bc578283fd5b6121cb85823560208401611f5c565b95602094909401359450505050565b6000602082840312156121eb578081fd5b5035919050565b6000815180845261220a816020860160208601612970565b601f01601f19169290920160200192915050565b60ff169052565b60008351612237818460208801612970565b83519083019061224b818360208801612970565b01949350505050565b91825260601b6bffffffffffffffffffffffff1916602082015260340190565b6001600160a01b0391909116815260200190565b6001600160a01b03858116825284166020820152604081018390526080606082018190526000906122bb908301846121f2565b9695505050505050565b60208082528251828201819052600091906040908185019080840286018301878501865b838110156123a557603f1989840301855281516101608151818652612310828701826121f2565b9150508882015189860152878201518886015260608083015181870152506080808301516123408288018261221e565b505060a0808301518683038288015261235983826121f2565b60c0858101519089015260e080860151908901526101008086015190890152610120808601519089015261014094850151949097019390935250505093860193908601906001016122e9565b509098975050505050505050565b901515815260200190565b60006020825261127f60208301846121f2565b60006101608083526123e58184018f6121f2565b90508c60208401528b60408401528a606084015260ff8a16608084015282810360a0840152612414818a6121f2565b60c0840198909852505060e0810194909452610100840192909252610120830152610140909101529695505050505050565b60208082526032908201527f4552433732313a207472616e7366657220746f206e6f6e20455243373231526560408201527131b2b4bb32b91034b6b83632b6b2b73a32b960711b606082015260800190565b60208082526026908201527f4f776e61626c653a206e6577206f776e657220697320746865207a65726f206160408201526564647265737360d01b606082015260800190565b6020808252601c908201527f4552433732313a20746f6b656e20616c7265616479206d696e74656400000000604082015260600190565b60208082526024908201527f4552433732313a207472616e7366657220746f20746865207a65726f206164646040820152637265737360e01b606082015260800190565b60208082526019908201527f4552433732313a20617070726f766520746f2063616c6c657200000000000000604082015260600190565b6020808252602c908201527f4552433732313a206f70657261746f7220717565727920666f72206e6f6e657860408201526b34b9ba32b73a103a37b5b2b760a11b606082015260800190565b60208082526038908201527f4552433732313a20617070726f76652063616c6c6572206973206e6f74206f7760408201527f6e6572206e6f7220617070726f76656420666f7220616c6c0000000000000000606082015260800190565b6020808252602a908201527f4552433732313a2062616c616e636520717565727920666f7220746865207a65604082015269726f206164647265737360b01b606082015260800190565b60208082526029908201527f4552433732313a206f776e657220717565727920666f72206e6f6e657869737460408201526832b73a103a37b5b2b760b91b606082015260800190565b6020808252818101527f4552433732313a206d696e7420746f20746865207a65726f2061646472657373604082015260600190565b6020808252602c908201527f4552433732313a20617070726f76656420717565727920666f72206e6f6e657860408201526b34b9ba32b73a103a37b5b2b760a11b606082015260800190565b6020808252818101527f4f776e61626c653a2063616c6c6572206973206e6f7420746865206f776e6572604082015260600190565b60208082526029908201527f4552433732313a207472616e73666572206f6620746f6b656e2074686174206960408201526839903737ba1037bbb760b91b606082015260800190565b6020808252602f908201527f4552433732314d657461646174613a2055524920717565727920666f72206e6f60408201526e3732bc34b9ba32b73a103a37b5b2b760891b606082015260800190565b60208082526021908201527f4552433732313a20617070726f76616c20746f2063757272656e74206f776e656040820152603960f91b606082015260800190565b60208082526031908201527f4552433732313a207472616e736665722063616c6c6572206973206e6f74206f6040820152701ddb995c881b9bdc88185c1c1c9bdd9959607a1b606082015260800190565b90815260200190565b918252602082015260400190565b600082198211156128d6576128d6612a06565b500190565b6000826128ea576128ea612a1c565b500490565b600060ff83168061290257612902612a1c565b8060ff84160491505092915050565b600081600019048311821515161561292b5761292b612a06565b500290565b600060ff821660ff84168160ff048111821515161561295157612951612a06565b029392505050565b60008282101561296b5761296b612a06565b500390565b60005b8381101561298b578181015183820152602001612973565b838111156111f95750506000910152565b6002810460018216806129b057607f821691505b602082108114156129d157634e487b7160e01b600052602260045260246000fd5b50919050565b60006000198214156129eb576129eb612a06565b5060010190565b600082612a0157612a01612a1c565b500690565b634e487b7160e01b600052601160045260246000fd5b634e487b7160e01b600052601260045260246000fd5b634e487b7160e01b600052604160045260246000fd5b6001600160e01b0319811681146113a457600080fdfea2646970667358221220e0909535f498b64f8b0a278aad1cf33cf1cd9a07272435aed7eb4a77c7b6c91c64736f6c63430008010033",
  "immutableReferences": {},
  "source": "// SPDX-License-Identifier: MIT\npragma solidity ^0.8.0;\n// Importacin de los Smart Contract: ERC721.sol y Ownable.sol\nimport \"@openzeppelin/contracts/token/ERC721/ERC721.sol\";\nimport \"@openzeppelin/contracts/access/Ownable.sol\";\nimport \"@openzeppelin/contracts/utils/math/SafeMath.sol\";\n\n// Creacin del Smart Contract para el Videojuego NFT\ncontract LipToken is ERC721, Ownable {\n\n    // Constructor de mi Smart Contract\n    constructor (string memory _name, string memory _symbol)\n    ERC721(_name, _symbol) {}\n\n    // ============================================\n    // Declaraciones iniciales\n\n    // Contador de tokens NFT\n    uint256 COUNTER;\n    // Fijacin en el precio de los Tokens NFT\n    uint256 fee = 0.001 ether;\n    string sex;\n    uint level;\n    uint cant;\n    // Estructura de datos con las propiedades del lip (labio)\n    struct Lip {\n        string name;\n        uint256 id;\n        uint256 dna;\n        uint level;\n        uint8 rarity;\n        string sex;\n        uint vida;\n        uint habil;\n        uint fuerza;\n        uint defenza;\n        uint poder;\n    }\n    // Estructura de almacenamiento\n    Lip [] public lips;\n    // Declaracin de un evento \n    event NewLip(address indexed owner, uint256 id, uint256 dna);\n\n    // ============================================\n    // Funciones de ayuda \n\n    // Asignacin de un nmero aleatorio\n    function _createRandomNum(uint256 _mod) internal view returns (uint256) {\n        uint256 randomNum = uint256(keccak256(abi.encodePacked(block.timestamp, msg.sender)));\n        return randomNum % _mod; \n    }\n\n    // Actualizacin del precio del Token NFT\n    function updateFee(uint256 _fee) external onlyOwner {\n        fee = _fee;\n    }\n\n    // Extraccin de los ethers del Smart Contract hacia el Owner \n    function withdraw() external payable onlyOwner {\n        address payable _owner = payable(owner());\n        _owner.transfer(address(this).balance);\n    }\n\n    // Creacin del Token NFT (AniMons)\n    function _createLip(string memory _name, uint _cant) internal {\n        cant = _cant;                \n        uint randDna = _createRandomNum(10**16);\n        uint8 randRarity = uint8(_createRandomNum(100));\n        uint sexo = _createRandomNum(33*33);   \n         uint256  vida = block.timestamp/100000000;   \n\n\n        for (uint256 i = 1; i <= cant; i++){               \n            vida = vida*7;\n            randDna = randDna *35;\n            randRarity = randRarity*3;\n            \n        //uint256 randomNum2 = uint256(keccak256(abi.encodePacked(block.timestamp, msg.sender)));                                               \n            if(level == 0){level=1;}\n            if (sexo % 2 == 0) {sex=\"F\";} else {sex=\"M\";}\n            uint habil = 5;\n            uint fuerza = 5;\n            uint defenza = 5;\n            uint poder = 5;            \n            //uint256 vida = randomNum2/100000000;                \n        Lip memory newLip = Lip(_name, COUNTER, randDna, level, randRarity, sex, vida, habil, fuerza, defenza, poder);\n        lips.push(newLip);             \n        _safeMint(msg.sender, COUNTER);\n        emit NewLip(msg.sender, COUNTER, randDna);\n        \n        vida = vida /15;\n        randDna = randDna /25;\n        randDna= randDna * 7;\n        COUNTER++;\n        randRarity = randRarity /10;\n        randRarity = randRarity /5;\n        }\n    }\n\n    // ============================================\n    \n    \n    \n    // Creacin de un labio aleatorio\n    function createRandomLip(string memory _name, uint _cant) public payable {\n        require(msg.value >= fee);     \n        _createLip(_name, _cant);        \n    }\n    // Obtencin de todos los lips (labios)\n    function getLips() public view returns (Lip [] memory) {\n        return lips;\n    }\n\n    // Visualizar el balance del Smart Contract \n    function moneySmartContract() public view returns (uint256){\n        return address(this).balance;\n    }\n\n    // Visualizar la direccin del Smart Contract\n    function addressSmartContract() public view returns (address) {\n        return address(this);\n    }\n\n    // Obtencin de los tokens NFT usuario\n    function getOwnerLips(address _owner) public view returns (Lip [] memory) {\n        Lip [] memory result = new Lip [] (balanceOf(_owner));\n        uint256 counter = 0;\n        for (uint256 i = 0; i <lips.length; i++) {\n            if (ownerOf(i) == _owner) {\n                result[counter] = lips[i];\n                counter++;\n            }\n        }\n        return result;\n    }\n\n    // Subir de nivel los tokens NFT \n    function levelUp(uint256 _lipId) public payable {\n        require(ownerOf(_lipId) == msg.sender);\n         require(msg.value >= fee);\n        Lip storage lip = lips[_lipId];\n        lip.level++;\n    }\n\n // Subir Vida los tokens NFT \n    function vidaUp(uint256 _lipId) public payable {\n        require(ownerOf(_lipId) == msg.sender);\n         require(msg.value >= fee);\n        Lip storage lip = lips[_lipId];\n        uint auvi;\n        auvi = 15;\n        lip.vida = lip.vida + auvi;\n    }\n\n\n    \n\n    // Subir habilidad los tokens NFT \n    function habilUp(uint256 _lipId) public payable {\n        require(ownerOf(_lipId) == msg.sender);\n         require(msg.value >= fee);\n        Lip storage lip = lips[_lipId];\n        uint auvi;\n        auvi = 3;\n        lip.habil = lip.habil + auvi;\n    }\n\n    // Subir Fuerza los tokens NFT \n    function fuerzaUp(uint256 _lipId) public payable {\n        require(ownerOf(_lipId) == msg.sender);\n         require(msg.value >= fee);\n        Lip storage lip = lips[_lipId];\n        uint auvi;\n        auvi = 5;\n        lip.fuerza = lip.fuerza + auvi;\n    }\n\n    // Subir Defenza los tokens NFT \n    function defenzaUp(uint256 _lipId) public payable {\n        require(ownerOf(_lipId) == msg.sender);\n         require(msg.value >= fee);\n        Lip storage lip = lips[_lipId];\n        uint auvi;\n        auvi = 3;\n        lip.defenza = lip.defenza + auvi;\n    }\n\n    // Subir Poder los tokens NFT \n    function poderUp(uint256 _lipId) public payable {\n        require(ownerOf(_lipId) == msg.sender);\n         require(msg.value >= fee);\n        Lip storage lip = lips[_lipId];\n        uint auvi;\n        auvi = 10;\n        lip.poder = lip.poder + auvi;\n    }\n\n\n}",
  "sourcePath": "C:\\Users\\digit\\OneDrive\\Escritorio\\NFT-V3\\contracts\\LipToken.sol",
  "compiler": {
    "name": "solc",
    "version": "0.8.1+commit.df193b15.Emscripten.clang"
  },
  "schemaVersion": "3.4.3",
  "updatedAt": "2022-01-14T21:33:33.419Z",
  "networkType": "ethereum",
  "devdoc": {
    "kind": "dev",
    "methods": {
      "approve(address,uint256)": {
        "details": "See {IERC721-approve}."
      },
      "balanceOf(address)": {
        "details": "See {IERC721-balanceOf}."
      },
      "getApproved(uint256)": {
        "details": "See {IERC721-getApproved}."
      },
      "isApprovedForAll(address,address)": {
        "details": "See {IERC721-isApprovedForAll}."
      },
      "name()": {
        "details": "See {IERC721Metadata-name}."
      },
      "owner()": {
        "details": "Returns the address of the current owner."
      },
      "ownerOf(uint256)": {
        "details": "See {IERC721-ownerOf}."
      },
      "renounceOwnership()": {
        "details": "Leaves the contract without owner. It will not be possible to call `onlyOwner` functions anymore. Can only be called by the current owner. NOTE: Renouncing ownership will leave the contract without an owner, thereby removing any functionality that is only available to the owner."
      },
      "safeTransferFrom(address,address,uint256)": {
        "details": "See {IERC721-safeTransferFrom}."
      },
      "safeTransferFrom(address,address,uint256,bytes)": {
        "details": "See {IERC721-safeTransferFrom}."
      },
      "setApprovalForAll(address,bool)": {
        "details": "See {IERC721-setApprovalForAll}."
      },
      "supportsInterface(bytes4)": {
        "details": "See {IERC165-supportsInterface}."
      },
      "symbol()": {
        "details": "See {IERC721Metadata-symbol}."
      },
      "tokenURI(uint256)": {
        "details": "See {IERC721Metadata-tokenURI}."
      },
      "transferFrom(address,address,uint256)": {
        "details": "See {IERC721-transferFrom}."
      },
      "transferOwnership(address)": {
        "details": "Transfers ownership of the contract to a new account (`newOwner`). Can only be called by the current owner."
      }
    },
    "version": 1
  },
  "userdoc": {
    "kind": "user",
    "methods": {},
    "version": 1
  }
}